:100000000C9434000C943E000C943E000C943E0082
:100010000C943E000C943E000C943E000C943E0068
:100020000C943E000C943E000C943E000C943E0058
:100030000C943E000C943E000C943E000C943E0048
:100040000C943E000C943E000C943E000C943E0038
:100050000C943E000C943E000C943E000C943E0028
:100060000C943E000C943E0011241FBECFEFD8E04C
:10007000DEBFCDBF0E944F000C9459000C940000CD
:1000800020E030E0281739074CF440ED57E000003D
:1000900041505109E1F72F5F3F4FF4CF0895219A66
:1000A000C2E085B18C2785B988EE93E00E944000BC
:0600B000F8CFF894FFCF29
:00000001FF
