:100000000C9434000C9451000C9451000C94510049
:100010000C9451000C9451000C9451000C9451001C
:100020000C9451000C9451000C9451000C9451000C
:100030000C9451000C9451000C9451000C945100FC
:100040000C9451000C9451000C9451000C945100EC
:100050000C9451000C9451000C9451000C945100DC
:100060000C9451000C94510011241FBECFEFD8E026
:10007000DEBFCDBF11E0A0E0B1E0E2E8F2E002C0F7
:1000800005900D92AE34B107D9F721E0AEE4B1E0AE
:1000900001C01D92AF34B207E1F70E940A010C942F
:1000A0003F010C940000389A4098309B06C081E0D4
:1000B00080934E0180E091E004C010924E018EE0EA
:1000C00091E00C9496001092C50088E08093C400E3
:1000D000E1ECF0E080818861808380818F7780838C
:1000E00080818F7B8083E2ECF0E08081866080837A
:1000F00080818F7B808380818F7780838081877FE1
:10010000808380818F7E808380818F7D808308952E
:100110009091C00095FFFCCF8093C6000895809118
:10012000C00087FFFCCF8091C6000895CF93DF9376
:10013000EC018991882319F00E948800FACFDF91A1
:10014000CF910895CF93DF9300D01F92CDB7DEB744
:10015000982F92959F708F701B829A3010F0995C47
:1001600001C0905D99838A3014F0895C01C0805D84
:100170008A83CE0101960E9496000F900F900F90F7
:10018000DF91CF9108951092B90088E48093B80070
:1001900008951092BC0084EA8093BC008091BC005A
:1001A00087FD05C086E391E00E949600F7CF089591
:1001B00084E98093BC0008958093BB0080E1489F50
:1001C000A0011124446880E4689FB0011124642BCD
:1001D0006093BC008091BC0087FD05C08EE391E078
:1001E0000E949600F7CF089520E1629FB00111248C
:1001F000646820E4829FC0011124682B6093BC00D6
:100200008091BC0087FD05C086E491E00E949600C5
:10021000F7CF08950E9463000E94C3008BE191E034
:100220000E9496000E9453002FEF83ED90E321502F
:1002300080409040E1F700C0000080914E0188238B
:1002400069F00E94C90040E060E087E20E94DC00A3
:1002500040E060E081E40E94DC000EC00E94C90022
:1002600060E080E00E94F4008091BB000E94A20048
:100270008AE491E00E9496000E94D800D5CFF894BD
:02028000FFCFAE
:100282004920616D206D61737465720D0A00492009
:10029200616D20736C6176650D0A005541525420E0
:1002A200616E642049324320696E697469616C69C8
:1002B2007A65640D0A0053746172740D0A005772F4
:0E02C2006974650D0A00526561640D0A000042
:00000001FF
