:100000000C9434000C9451000C9451000C94510049
:100010000C9451000C9451000C9451000C9451001C
:100020000C9451000C9451000C9451000C9451000C
:100030000C9451000C9451000C9451000C945100FC
:100040000C9451000C9451000C9451000C945100EC
:100050000C9451000C9451000C9451000C945100DC
:100060000C9451000C94510011241FBECFEFD8E026
:10007000DEBFCDBF11E0A0E0B1E0E4E7F3E002C0F5
:1000800005900D92AC3BB107D9F721E0ACEBB1E0A4
:1000900001C01D92AD3BB207E1F70E946E010C94C6
:1000A000B8010C940000389A4098309B06C081E05B
:1000B0008093BC0180E091E004C01092BC018EE00E
:1000C00091E00C9496001092C50088E08093C400E3
:1000D000E1ECF0E080818861808380818F7780838C
:1000E00080818F7B8083E2ECF0E08081866080837A
:1000F00080818F7B808380818F7780838081877FE1
:10010000808380818F7E808380818F7D808308952E
:100110009091C00095FFFCCF8093C6000895809118
:10012000C00087FFFCCF8091C6000895CF93DF9376
:10013000EC018991882319F00E948800FACFDF91A1
:10014000CF910895CF93DF9300D01F92CDB7DEB744
:10015000982F92959F708F701B829A3010F0995C47
:1001600001C0905D99838A3014F0895C01C0805D84
:100170008A83CE0101960E9496000F900F900F90F7
:10018000DF91CF9108951092B90088E48093B80070
:10019000089584EA8093BC008091BC0087FD05C06F
:1001A00086E391E00E949600F7CF8091B900887FA6
:1001B000883031F09091B900987F81E0903109F456
:1001C00080E00895CF93C82F84EA8093BC0080918B
:1001D000BC0087FD05C086E391E00E949600F7CF42
:1001E0008091B900887F883029F08091B900887F9C
:1001F0008031C9F4CC0FC160C093BB0084E8809308
:10020000BC008091BC0087FD05C08EE391E00E9498
:100210009600F7CF8091B900887F803431F08EE46A
:1002200091E00E94960081E001C080E0CF910895A6
:10023000CF93C82F84EA8093BC008091BC0087FDD7
:1002400005C086E391E00E949600F7CF8091B90047
:10025000887F883029F08091B900887F8031C1F48F
:10026000CC0FC093BB0084E88093BC008091BC009D
:1002700087FD05C088E791E00E949600F7CF809146
:10028000B900887F883131F089E891E00E949600BA
:1002900081E001C080E0CF91089584E98093BC00A3
:1002A00008958093BB0084E88093BC008091BC00DB
:1002B00087FD05C084EB91E00E949600F7CF08957A
:1002C00020E4829FC001112484688093BC00809147
:1002D000BC0087FFFCCF8091BB0008950E946300A3
:1002E0000E94C3008BE191E00E9496000E9453009F
:1002F0002FEF83ED90E3215080409040E1F700C064
:1003000000008091BC018823D9F087E20E94180187
:1003100061E08FE40E9451012FEF81EE94E02150C3
:1003200080409040E1F700C000008EE40E94E200AF
:1003300080E00E9460010E94A2000E944D01E1CF76
:100340002FEF83ED90E3215080409040E1F700C013
:10035000000080E20E94E20080E00E9460010E94B2
:10036000A20085E791E00E9496000E944D01C0CF57
:04037000F894FFCF2F
:100374004920616D206D61737465720D0A00492016
:10038400616D20736C6176650D0A005541525420ED
:10039400616E642049324320696E697469616C69D5
:1003A4007A65640D0A0053746172740D0A00537403
:1003B40061727420746F20726561640D0A00536C5D
:1003C40061766520646964206E6F742061636B6E6E
:1003D4006F776C656467652072656164207265710E
:1003E400756573742E0D0A00537461727420746FF2
:1003F4002077726974650D0A00536C617665206418
:100404006964206E6F742061636B6E6F776C6564D2
:100414006765207772697465207265717565737498
:0C0424002E0D0A0057726974650D0A0065
:00000001FF
