:100000000C9446000C9463000C9463000C94630001
:100010000C9463000C9463000C9463000C946300D4
:100020000C9463000C9463000C9463000C946300C4
:100030000C9463000C9463000C94C2020C94630053
:100040000C9463000C9463000C9463000C946300A4
:100050000C9463000C9463000C9463000C94630094
:100060000C9463000C946300A600A800AA00AC00E6
:10007000AE00BC00B000B200B400B600B800BA00D8
:100080006364696E6F70737578585B0011241FBECE
:10009000CFEFD8E0DEBFCDBF12E0A0E0B1E0E8ECEA
:1000A000FEE102C005900D92A230B107D9F722E01F
:1000B000A2E0B2E001C01D92A634B207E1F70E94AF
:1000C00032090C94620F0C94000052988BB1846139
:1000D0008BB908951F93CF93DF93C82F162FD42F7A
:1000E0000E94590180E40E94650182E00E9465013E
:1000F0008FEF0E9465010E946101CC2311F0C7EFD0
:1001000001C0CFEF1111CB7FD111CD7F0E945901DA
:1001100080E40E94650182E00E9465018C2F0E94AC
:100120006501DF91CF911F910C946101982F987018
:10013000990F8770892B85B9089590E08C309105CF
:10014000D8F4FC01EC5CFF4F0C94E8090C947603A6
:100150000C9485030C9494030C94A3030C94B703A0
:100160000C942E040C943B040C945A040C943E08FA
:100170000C948B080C94D80881E091E00C94F20068
:100180001092C50088E08093C400E1ECF0E088E1C3
:10019000808380818F77808380818F7B8083E2EC76
:1001A000F0E080818660808380818F7B8083808186
:1001B0008F7780838081877F808380818F7E80831B
:1001C00080818F7D808308959091C00095FFFCCF42
:1001D0008093C60008958091C00087FFFCCF809176
:1001E000C6000895CF93DF93EC018991882319F01D
:1001F0000E94E400FACFDF91CF9108951F93CF932F
:10020000DF93CDB7DEB761970FB6F894DEBF0FBEB0
:10021000CDBF182F81E1E0E1F1E0DE011196019000
:100220000D928A95E1F7812F82958F70E1E0F0E0E1
:10023000EC0FFD1FE80FF11D80810E94E4001F708C
:10024000E1E0F0E0EC0FFD1FE10FF11D8081619610
:100250000FB6F894DEBF0FBECDBFDF91CF911F91D7
:100260000C94E400CF93DF9300D01F92CDB7DEB79C
:10027000982F92959F708F701B829A3010F0995C26
:1002800001C0905D99838A3014F0895C01C0805D63
:100290008A83CE0101960E94F2000F900F900F907A
:1002A000DF91CF9108951092B90088E48093B8004F
:1002B000089584EA8093BC008091BC0087FFFCCF46
:1002C000089584E98093BC0008958093BB0084E87E
:1002D0008093BC008091BC0087FFFCCF089520E490
:1002E000829FC001112484688093BC0008958823F4
:1002F00011F084EC01C084E88093BC008091BC00C4
:1003000087FFFCCF8091BB000895880F81608093A8
:10031000BA0084E48093BC000895880F8093BA00EB
:1003200084E48093BC000895880F8093BA0084E829
:100330008093BC00089582E084BD93E095BD99EF61
:1003400097BD80936E000895FF920F931F93CF93F4
:10035000DF93F82E092F162F0E94590180E40E9486
:100360006501CF2DD02FCE01810F911D8C01C017BB
:10037000D10721F089910E946501F9CFDF91CF91DA
:100380001F910F91FF900C946101E7E3F2E08FE37E
:10039000808386E081838BE582838FE4838386E696
:1003A00084838DE685838DE7868387E087838FE767
:1003B00080879FE6918790E49287E2E4F2E0808371
:1003C0008FEB81838FED82838FEE838308950E946C
:1003D000590180E40E94650186E00E94650181E088
:1003E0000E94650180E00E9465010C946101CF9339
:1003F000DF93C82FD62F0E94590180E40E94650127
:1004000082E00E946501ED2FF0E0EF5BFD4F8081FF
:100410000E946501EC2FF0E0E95CFD4F80810E94B5
:100420006501DF91CF910C946101CF93DF93D82FB9
:10043000C62F0E94590180E40E94650182E00E945B
:1004400065018D2F0E9465018C2F0E946501DF914F
:10045000CF910C9461010E94590180E40E946501D2
:1004600082E00E9465018FEF0E94650180E00E949A
:1004700065010C946101CF93DF930E94C50184B1A3
:10048000876184B9CDE2D1E0219721F185B18761FF
:1004900085B90E942B0261E088E00E94F7010E946A
:1004A0002B0262E088E00E94F7010E942B0263E0C9
:1004B00088E00E94F7010E942B0264E088E00E941D
:1004C000F7010E942B028FE19EE40197F1F700C033
:1004D0000000DACF0E942B0285B1887E85B99FEF9C
:1004E00023ED80E3915020408040E1F700C0000000
:1004F000DF91CF9108950F931F93CF93DF93EC017A
:10050000F8940E942B02CE016AE070E00E94C009BC
:10051000162F61E00E94F7010E942B02CE0164E6D3
:1005200070E00E94C009062F62E0812F9AE0099FC7
:10053000801911240E94F7010E942B02CE0168EE5F
:1005400073E00E94C009162F63E0802F9AE0199F84
:10055000801911240E94F7010E942B02CE0160E154
:1005600077E20E94C009862F64E09AE0899F101903
:100570001124812F0E94F7017894DF91CF911F9170
:100580000F9108951F920F920FB60F9211240F939F
:100590001F932F933F934F935F936F937F938F930B
:1005A0009F93AF93BF93EF93FF93CF93DF93CDB719
:1005B000DEB72597DEBFCDBF8E010F5F1F4F85E0F1
:1005C000F80111928A95E9F780910602909107024D
:1005D0000196909307028093060280910402909105
:1005E0000502019690930502809304028091060211
:1005F00090910702019711F40E946704809106020E
:10060000909107028135910571F4109207021092C2
:100610000602C8010E94770448E052E06CE072E0F4
:10062000C8010E94A2048091040290910502843FB7
:100630009140B9F4109205021092040280910202D6
:10064000909103020196909303028093020280919D
:10065000020290910302039721F410920302109278
:1006600002020F900F900F900F900F90DF91CF919B
:10067000FF91EF91BF91AF919F918F917F916F917A
:100680005F914F913F912F911F910F910F900FBE4E
:100690000F901F901895882321F080917C00806C2A
:1006A00003C080917C00806480937C0080917A00FC
:1006B000806880937A0080917A00876080937A00C6
:1006C000089590917C00907F8F70892B80937C009F
:1006D00080917A00806480937A0080917A0086FD10
:1006E000FCCF80917800909179000895CF93DF93AB
:1006F00080E00E944B0380E00E946103EC010E94B5
:100700007B02CE01DF91CF910895CF93DF9380E0FC
:100710000E944B0381E00E946103EC010E947B0276
:10072000CE01DF91CF910895CF93DF9380E00E94B7
:100730004B0382E00E946103EC010E947B02CE0128
:10074000DF91CF91089581E00E944B0388E00E94E1
:10075000610329E1AC01249FC001259F900D112464
:100760006AE371E00E94C009CB010C947B02EF9216
:10077000FF920F931F93F8948091020290910302CD
:10078000892B71F45D9AE12CF12C0FEF11EE20E032
:1007900030E04FEF51EE60E070E08FEF91EE29C056
:1007A0008091020290910302019779F45E9AE12C04
:1007B000FF24FA9400E011EE20E03FEF40E051EE1C
:1007C00060E07FEF80E091EE14C080910202909192
:1007D0000302029781F45B9AEE24EA94F12C00E084
:1007E00011EE2FEF30E040E051EE6FEF70E080E06F
:1007F00091EE0E94F6050E942B0264E08AE00E94BE
:10080000F7010E942B0263E084E00E94F7010E943E
:100810002B0262E082E00E94F7010E942B0261E05D
:100820008AE00E94F7010E942B02E12CF12C00E0EB
:1008300011EE20E030E040E051EE60E070E080E05A
:1008400091EE0E94F6055D985E985B98789480E042
:1008500090E01F910F91FF90EF90089560910C022E
:1008600070910D0280910E0290910F020E94CD0AAC
:10087000CB010C947B0260910C0270910D0280916F
:100880000E0290910F0220E030E040E151E40E941E
:100890008A0B20E030E040EA50E40E945B0A20E04E
:1008A00030E040E052E40E94EF090E94CD0ACB0103
:1008B0000C947B02609108027091090280910A02F7
:1008C00090910B020E94CD0ACB010C947B020E94F6
:1008D000590180E70E9465018CEA0E94650183E36B
:1008E0000E94650180E00E9465010C9461010F93F4
:1008F0001F93CF93DF93D82FC92F0E94590180E710
:100900000E9465018CEA0E9465010E94590181E7FD
:100910000E94650181E00E9477010D2F1C2FC0E02D
:1009200081E0C43009F480E00E947701F8018193EE
:100930008F01CF5FC530A1F7DF91CF911F910F914C
:100940000C9461012F923F924F925F926F927F922F
:100950008F929F92AF92BF92CF92DF92EF92FF92CF
:100960000F931F93CF93DF9300D000D0CDB7DEB7A6
:100970009C838B831B015A834983FC011281212FA5
:100980002F7063817481762767277627CB01A0E0DB
:10099000B0E0BC01CD01822B0E94FC0A20E030E0D7
:1009A00040E855E30E948A0B20E030E048E453E43D
:1009B0000E948A0B4B015C01EB81FC816081862FD8
:1009C00090E0A0E0B0E0AC01BD012CE0440F551F69
:1009D000661F771F2A95D1F7818190E0A0E0B0E0F3
:1009E00034E0880F991FAA1FBB1F3A95D1F7842BBB
:1009F000952BA62BB72B12951F70BC01CD01612B37
:100A00000E94FC0A20E030E040E855E30E948A0B97
:100A10006B017C0120912A0230912B023C832B83B5
:100A20008901000F111F000F111FC801825E9D4F29
:100A30003C0120E030E048E452E4C501B4010E94EA
:100A4000EE09F30160837183828393830E5E1D4FF1
:100A500020E030E048EC52E4C701B6010E948A0B66
:100A6000F80160837183828393838B819C810196DB
:100A700063E070E00E94D40990932B0280932A02D5
:100A80002091100230911102233031052CF42F5F98
:100A90003F4F3C832B8304C083E090E09C838B8397
:100AA000EB81FC81F0931102E09310028EE1882E1D
:100AB00082E0982E92E1A92E92E0B92E00E010E09B
:100AC000C12CD12C7601260137012B813C810217E4
:100AD0001307DCF4F40121913191419151914F01BF
:100AE000C301B2010E94EF092B013C01F5012191E4
:100AF0003191419151915F01C701B6010E94EF0907
:100B00006B017C010F5F1F4FE0CFB901330F880BE2
:100B1000990B0E94FE0A4B015C019B01AC01C301D1
:100B2000B2010E945B0AF101608371838283938327
:100B3000A5019401C701B6010E945B0AE981FA810F
:100B400060837183828393830F900F900F900F9037
:100B5000DF91CF911F910F91FF90EF90DF90CF9099
:100B6000BF90AF909F908F907F906F905F904F90CD
:100B70003F902F9008958AB188668AB908958CE2D3
:100B800084B981E58CBD08958EBD0DB407FEFDCFFF
:100B9000089580E00E94C40580E00E94C40580E0C2
:100BA0000E94C40580E00C94C4058FEF0E94C40528
:100BB0008FEF0E94C4058FEF0E94C4058FEF0C9445
:100BC000C4051F93CF93DF93162FD72FC82F892FDC
:100BD0000E94C405812F0E94C4058D2F0E94C40568
:100BE0008C2FDF91CF911F910C94C4054F925F928F
:100BF0006F927F928F929F92AF92BF92CF92DF922D
:100C0000EF92FF920F931F932B013C0149015A0170
:100C1000670178010E94C905C301B2010E94E10584
:100C2000C501B4010E94E105C701B6010E94E105BA
:100C30001F910F91FF90EF90DF90CF90BF90AF90FA
:100C40009F908F907F906F905F904F900C94D50500
:100C5000DF92EF92FF920F931F93CF93DF93CDB765
:100C6000DEB72C970FB6F894DEBF0FBECDBF9E0146
:100C70002B5F3F4F3F932F932E5F3F4F3F932F9319
:100C80002E5F3F4F3F932F93265031093F932F9371
:100C9000225031093F932F93265F3F4F3F932F936D
:100CA00021E231E03F932F939F938F930E94F70BA4
:100CB0000FB6F894DEBF0FBECDBF069709F083C014
:100CC0002B813C81C901805D9740893C910518F0DA
:100CD00089E391E04DC089819A81AC01415051096D
:100CE0004C30510518F089E491E042C0EB85FC8559
:100CF000AF01415051094F31510518F08AE591E09B
:100D000037C0AC014D7F4430510509F45FC0493014
:100D1000510509F45BC00297E9F4C9018370992772
:100D2000892B39F4C90164E670E00E94D409892B4B
:100D300039F4C90160E971E00E94D409892B29F4D2
:100D40007E9744F083E891E013C07D971CF08AE819
:100D500091E00EC089859A85489740F48F819885E7
:100D6000CC9720F48D819E81CC9728F081E991E089
:100D70000E94F20028C0C90164E670E00E94D40914
:100D8000822F94E6699F801911240E942E08E82E74
:100D900089810E942E08082F8B850E942E08D82E4C
:100DA00089850E942E08F82E8F810E942E08182F08
:100DB0008D810E942E082D2D4F2D612F0E94FF073F
:100DC00081E090E008C080E090E005C07F9711F6D8
:100DD00089E691E0CDCF2C960FB6F894DEBF0FBE1A
:100DE000CDBFDF91CF911F910F91FF90EF90DF90DA
:100DF0000895CF92DF92EF92FF920F931F93CF93BC
:100E0000DF93CDB7DEB764970FB6F894DEBF0FBEA1
:100E1000CDBFCE0101967C0184E1F70111928A9544
:100E2000E9F78BEA91E00E94F20000E010E00E94F6
:100E3000EB008D3091F4F701E00FF11F10828DE08F
:100E40000E94E4008AE00E94E400C7010E94280694
:100E5000892B49F187ED91E028C0033111055CF73A
:100E60008F3779F40115110561F088E00E94E400E4
:100E700080E20E94E40088E00E94E4000150110931
:100E8000D6CF91ED980F9C3010F0803281F668013A
:100E9000FFEFCF1ADF0AF701E00FF11F80830E94F6
:100EA000E4008601C4CF8BEE91E00E94F2006496CC
:100EB0000FB6F894DEBF0FBECDBFDF91CF911F916B
:100EC0000F91FF90EF90DF90CF9008950E9459010D
:100ED00082EA0E94650182E00E9465010E94590138
:100EE00083EA0E94650181E00E94770180933502C8
:100EF00081E00E9477018093340281E00E947701B3
:100F00008093330281E00E94770180932F0281E079
:100F10000E9477018093300281E00E9477018093E4
:100F2000310280E00E947701809332020E946101C9
:100F300080913502909135028077869586958695C9
:100F4000282F220F220F820F9F70890F8093350266
:100F500080913402909134028077869586958695AB
:100F6000282F220F220F820F9F70890F8093340247
:100F70008091330290913302807386958695869591
:100F8000282F220F220F820F9F70890F8093330228
:100F900080912F0290912F02807386958695869579
:100FA000282F220F220F820F9F70890F80932F020C
:100FB0008091310287FF04C081E080932E0202C03D
:100FC00010922E02809131029091310282958170AF
:100FD000880F282F220F220F820F9F70890F809376
:100FE0003102909132028091320292959F708F70FF
:100FF0002AE0929F800D1124809332020895EF928F
:10100000FF920F931F93CF93DF93F82E162FD42FB9
:10101000C22F0E94590182EA0E94650182E00E946B
:1010200065018F2D0E946501812F0E9465018D2F22
:101030000E9465018C2F0E94650180E00E9465017D
:10104000802F0E9465018E2D0E946501DF91CF9156
:101050001F910F91FF90EF900C946101282F6AE08F
:101060000E94B409922F3AE0839F9019112440E125
:10107000849F90011124892F822B08950F931F9331
:10108000CF93DF93F8940E9466070E942B02C3E37C
:10109000D2E088811AE0612F0E94B40964E00E94C6
:1010A000F7010E942B0228818881612F0E94B409D8
:1010B00006EF63E0809F200D1124822F0E94F7012C
:1010C0000E942B028981612F0E94B40962E00E9474
:1010D000F7010E942B0229818981612F0E94B409A6
:1010E00061E0809F200D1124822F0E94F7010E9451
:1010F0002B0260E88FE70E9415020E942B0260E835
:101100008FED0E9415020E942B027894DF91CF91FF
:101110001F910F9108950F931F93CF93DF93F8942E
:101120000E9466070E942B02CFE2D2E088811AE07B
:10113000612F0E94B40964E00E94F7010E942B0213
:1011400028818881612F0E94B40906EF63E0809FA7
:10115000200D1124822F0E94F7010E942B028A8108
:10116000612F0E94B40962E00E94F7010E942B02E5
:101170002A818A81612F0E94B40961E0809F200D3D
:101180001124822F0E94F7010E942B0260E88FE752
:101190000E9415020E942B0260E88FED0E9415024A
:1011A0000E942B027894DF91CF911F910F910895A7
:1011B000CF93DF93F8940E94660780912E028823D4
:1011C00069F080913602811109C0809100018F5F22
:1011D0008093000181E08093360209C080912E0245
:1011E000811105C0809136028111109236020E9451
:1011F0002B0280910001CAE06C2F0E94B40964E0C8
:101200000E94F7010E942B0220910001822F6C2F77
:101210000E94B409D6EF63E08D9F200D1124822F28
:101220000E94F7010E942B02809132026C2F0E94D3
:10123000B40962E00E94F7010E942B022091320261
:10124000809132026C2F0E94B40961E08D9F200DC5
:101250001124822F0E94F7010E942B027894DF91C3
:10126000CF9108950E94C0000E9453010E949B01EB
:101270000E94E7010E94BF050E94BB050E94650015
:101280000E943B02F89400E010E0C9E0DD24D39412
:101290004A9919C011111AC02FEF80E792E021502E
:1012A00080409040E1F700C000004A9913C0CF5F32
:1012B000CC3021F0C53019F4C6E001C0C0E08C2F5D
:1012C0000E94960003C0F12C10E006C0FF24F394A6
:1012D00011E002C0FF24F3944C9919C001111AC007
:1012E0002FEF80E792E0215080409040E1F700C06E
:1012F00000004C9913C0CC2321F0C53019F4C4E090
:1013000001C0CCE0C1508C2F0E94960003C0E12C9C
:1013100000E006C0EE24E39401E002C0EE24E39472
:10132000F8940E94590180E40E94650180E00E94C7
:1013300065010E94590181E40E94650180E00E94DC
:101340007701D82F0E946101D170DD254D2F6E2DC0
:101350008F2D0E946A00D1110E94F90678948C2F7B
:101360000E949D00F89494CF991B79E004C0991FC6
:10137000961708F0961B881F7A95C9F780950895EF
:10138000AA1BBB1B51E107C0AA1FBB1FA617B707AB
:1013900010F0A61BB70B881F991F5A95A9F78095C7
:1013A0009095BC01CD01089597FB072E16F400948B
:1013B00007D077FD09D00E94C00907FC05D03EF494
:1013C000909581959F4F0895709561957F4F0895F1
:1013D000EE0FFF1F0590F491E02D09945058BB27A4
:1013E000AA270E94060A0C94500B0E94420B38F068
:1013F0000E94490B20F039F49F3F19F426F40C9415
:101400003F0B0EF4E095E7FB0C94390BE92F0E949B
:10141000610B58F3BA17620773078407950720F02A
:1014200079F4A6F50C94830B0EF4E0950B2EBA2FED
:10143000A02D0B01B90190010C01CA01A0011124DA
:10144000FF27591B99F0593F50F4503E68F11A1686
:10145000F040A22F232F342F4427585FF3CF469517
:1014600037952795A795F0405395C9F77EF41F1639
:10147000BA0B620B730B840BBAF09150A1F0FF0F03
:10148000BB1F661F771F881FC2F70EC0BA0F621FEF
:10149000731F841F48F4879577956795B795F795DF
:1014A0009E3F08F0B0CF9395880F08F09927EE0F74
:1014B0009795879508950E946F0A0C94500B0E948F
:1014C000490B58F00E94420B40F029F45F3F29F08D
:1014D0000C94390B51110C94840B0C943F0B0E940B
:1014E000610B68F39923B1F3552391F3951B550BC9
:1014F000BB27AA2762177307840738F09F5F5F4FE7
:10150000220F331F441FAA1FA9F335D00E2E3AF025
:10151000E0E832D091505040E695001CCAF72BD03D
:10152000FE2F29D0660F771F881FBB1F261737078E
:101530004807AB07B0E809F0BB0B802DBF01FF27C0
:1015400093585F4F3AF09E3F510578F00C94390B59
:101550000C94840B5F3FE4F3983ED4F38695779523
:101560006795B795F7959F5FC9F7880F911D969579
:10157000879597F90895E1E0660F771F881FBB1FD5
:10158000621773078407BA0720F0621B730B840B82
:10159000BA0BEE1F88F7E09508950E94690B88F05A
:1015A0009F5798F0B92F9927B751B0F0E1F0660F27
:1015B000771F881F991F1AF0BA95C9F714C0B13068
:1015C00091F00E94830BB1E008950C94830B672F78
:1015D000782F8827B85F39F0B93FCCF38695779597
:1015E0006795B395D9F73EF4909580957095619580
:1015F0007F4F8F4F9F4F0895E89409C097FB3EF4AB
:1016000090958095709561957F4F8F4F9F4F99234F
:10161000A9F0F92F96E9BB279395F69587957795CD
:101620006795B795F111F8CFFAF4BB0F11F460FF8D
:101630001BC06F5F7F4F8F4F9F4F16C0882311F0E5
:1016400096E911C0772321F09EE8872F762F05C0F9
:10165000662371F096E8862F70E060E02AF09A9594
:10166000660F771F881FDAF7880F9695879597F989
:10167000089597F99F6780E870E060E008959FEF14
:1016800080EC089500240A94161617061806090619
:10169000089500240A9412161306140605060895E8
:1016A000092E0394000C11F4882352F0BB0F40F470
:1016B000BF2B11F460FF04C06F5F7F4F8F4F9F4FB0
:1016C000089557FD9058440F551F59F05F3F71F032
:1016D0004795880F97FB991F61F09F3F79F0879599
:1016E0000895121613061406551FF2CF4695F1DF22
:1016F00008C0161617061806991FF1CF86957105B2
:10170000610508940895E894BB2766277727CB01E5
:1017100097F908950E949D0B0C94500B0E94420B68
:1017200038F00E94490B20F0952311F00C94390BEE
:101730000C943F0B11240C94840B0E94610B70F3EA
:10174000959FC1F3950F50E0551F629FF001729F66
:10175000BB27F00DB11D639FAA27F00DB11DAA1F75
:10176000649F6627B00DA11D661F829F2227B00DC2
:10177000A11D621F739FB00DA11D621F839FA00D4D
:10178000611D221F749F3327A00D611D231F849F9D
:10179000600D211D822F762F6A2F11249F575040F4
:1017A0009AF0F1F088234AF0EE0FFF1FBB1F661F6F
:1017B000771F881F91505040A9F79E3F510580F038
:1017C0000C94390B0C94840B5F3FE4F3983ED4F3F4
:1017D000869577956795B795F795E7959F5FC1F7DC
:1017E000FE2B880F911D9695879597F90895AEE089
:1017F000B0E0EDEFFBE00C943B0F85E08C838B8930
:101800009C899A838983AE01495E5F4F6D897E8989
:10181000CE0101960E94AC0D2E96E2E00C94570F7B
:1018200020FD09C0FC0123FD05C022FF02C0738317
:10183000628351834083089544FD17C046FD17C05D
:10184000AB01BC01DA01FB01AA0FBB1FEE1FFF1F9A
:101850001094D1F74A0F5B1F6E1F7F1FCB01BA0197
:10186000660F771F881F991F09C033E001C034E05D
:10187000660F771F881F991F3150D1F7620F711DB6
:10188000811D911D08950F931F93CF93DF938C01BA
:10189000C8010E94D10EEC0197FD08C00E94BD0E48
:1018A000892BB1F7B801CE010E940F0FCE01DF9155
:1018B000CF911F910F9108958F929F92AF92BF92F7
:1018C000EF92FF920F931F93CF93DF938C01D62F4C
:1018D0007A01B22E0E94D10E9C0133272B323105A2
:1018E00031F02D32310561F48B2D8068B82ED15046
:1018F00011F480E068C0C8010E94D10E97FDF9CFB5
:10190000CB2DCD7F2B2D207309F58033F9F4AA243C
:10191000AA94AD0E09F443C0C8010E94D10E97FDF0
:101920003EC09C012F7D33272835310549F4C26420
:10193000D250A9F1C8010E94D10E97FF07C02FC055
:10194000B6FE02C0C26001C0C261DA2D812C912CAA
:10195000540120ED280F283080F0C4FF04C0B801E6
:101960000E940F0F19C02A3040F0C6FFF8CF2F7D1C
:101970003FEE320F363098F727504C2FC501B40197
:101980000E941C0C4B015C01C260D15059F0C8018F
:101990000E94D10E97FFDDCFC1FD04C0AACF812CDC
:1019A000912C5401C7FF08C0B094A09490948094E7
:1019B000811C911CA11CB11C2C2FB501A401C701D5
:1019C0000E94100C81E0DF91CF911F910F91FF9049
:1019D000EF90BF90AF909F908F900895A0E2B0E0FD
:1019E000E4EFFCE00C942E0F5C01962E7A01F901D5
:1019F0008E010F5F1F4F680180E2D8011D928A950A
:101A0000E9F7D50113968C9080E090E0612C712C61
:101A100030E061E070E083FC259183FE21918F012D
:101A2000522E211103C080E090E092C02E3511F4B7
:101A3000009751F1432F50E0481759073CF42D35DA
:101A400059F12D3219F4772009F103C0772009F4F8
:101A50006AC0452D469546954695D601A40FB11D01
:101A6000452D47708B0102C0000F111F4A95E2F708
:101A7000A8015C91452B4C93651459F0561410F451
:101A80005394E7CF5A94E5CF31E004C077247394A0
:101A900001C0712C0196BFCF772019F08E81806232
:101AA0008E83311103C08824839417C0F6019E01F0
:101AB0002F5D3F4F8081809581932E173F07D1F78F
:101AC000F2CFE114F10429F0D7018C93F70131969C
:101AD0007F019A94812C9920F9F0C5010E94D10EC2
:101AE00097FD18C0FC01FF2723E0F595E7952A959F
:101AF000E1F7EC0DFD1D208130E0AC01477055276A
:101B000002C0359527954A95E2F720FDDACFB50159
:101B10000E940F0F811087CFE114F10411F0D7015B
:101B20001C92C80115C0422F469546954695D60190
:101B3000A40FB11D422F47708B0102C0000F111F6F
:101B40004A95E2F7A8015C91452B4C93622EA2CFF7
:101B5000A096EFE00C944A0FA0E0B0E0E2EBFDE0CD
:101B60000C942E0F6C01EB015A01FC0117821682B6
:101B7000512CF601E380FE01E3FC8591E3FE8191A7
:101B8000182FEF01882309F4EEC090E00E94BD0EEB
:101B9000892B21F0C6010E94430CEBCF153241F492
:101BA000FE01E3FC1591E3FE1191EF01153281F482
:101BB000C6010E94D10E97FDD4C0412F50E09C0178
:101BC000332724173507A9F2B6010E940F0FCBC0A7
:101BD0001A3239F4E3FC1591E3FE1191EF0101E0B3
:101BE00001C000E0F12C20ED210F2A3080F40260CA
:101BF0006F2D70E080E090E040E20E941C0CF62E19
:101C0000FE01E3FC1591E3FE1191EF01ECCF01FF22
:101C100003C0F11003C0A7C0FF24FA94183619F0CE
:101C20001C3651F010C0FE01E3FC1591E3FE11914A
:101C3000EF01183641F408600460FE01E3FC1591E1
:101C4000E3FE1191EF01112309F48DC0612F70E0C3
:101C500080E890E00E94C60E892B09F484C000FD44
:101C600007C0F50180809180C50102965C0102C029
:101C7000812C912C1E3651F4F6014681578160E08B
:101C800070E0202FC4010E94100C73CF1336A9F40A
:101C900001FD02C0FF24F394C6010E94D10E97FDFE
:101CA00060C08114910429F0F4018083C40101967D
:101CB0004C01FA94F110F0CF50C01B3559F49E013D
:101CC000A4016F2DC6010E94EE0CEC01892B09F0D6
:101CD00044C03EC0C6010E94430C97FD42C01F365F
:101CE00061F128F4143639F1193651F128C013374F
:101CF00071F0153701F123C08114910429F0F4012A
:101D00006082C40101964C01FA94FF2071F0C60173
:101D10000E94D10E3C0197FD08C00E94BD0E892B88
:101D200059F3B601C3010E940F0F81149104A9F069
:101D3000F401108212C0006203C0006101C000649F
:101D4000202FA4016F2DC6010E945C0C811105C0DB
:101D5000F6018381807329F406C000FD0ACF5394F5
:101D600008CF552019F0852D90E002C08FEF9FEF2E
:101D7000CDB7DEB7EFE00C944A0F91110C94280F09
:101D8000803219F089508550C8F70895FC010590FC
:101D9000061621F00020D9F7C00108953197CF0130
:101DA0000895CF93DF93EC012B8120FF33C026FFF2
:101DB0000AC02F7B2B838E819F8101969F838E8308
:101DC0008A8190E029C022FF0FC0E881F9818081DB
:101DD000082E000C990B009719F420622B831AC06F
:101DE0003196F983E8830EC0EA85FB85099597FF54
:101DF00009C02B81019611F080E201C080E1822BA5
:101E00008B8308C02E813F812F5F3F4F3F832E83FE
:101E1000992702C08FEF9FEFDF91CF910895FB01CB
:101E2000238120FF12C026FD10C08F3F3FEF930794
:101E300061F082832F7D20642383268137812150A6
:101E4000310937832683992708958FEF9FEF0895EF
:101E50009927882708952F923F924F925F926F9211
:101E60007F928F929F92AF92BF92CF92DF92EF922A
:101E7000FF920F931F93CF93DF93CDB7DEB7CA1BAB
:101E8000DB0B0FB6F894DEBF0FBECDBF09942A88D6
:101E9000398848885F846E847D848C849B84AA847E
:101EA000B984C884DF80EE80FD800C811B81AA810B
:101EB000B981CE0FD11D0FB6F894DEBF0FBECDBFD6
:081EC000ED010895F894FFCF35
:101EC80014496E76616C6964206D6F64650D0A0053
:101ED8003031323334353637383941424344454658
:101EE800002532642F2532642F253464202532647E
:101EF8003A2532643A25326400696E76616C696409
:101F08006520796561720D0A00696E76616C696495
:101F180065206D6F6E74680D0A00696E76616C6974
:101F28006465206461790D0A00696E76616C696484
:101F380065206A6F75722064616E73206D6F6973B6
:101F48000D0A00746F746F0D0A00746974690D0AC4
:101F580000766572696620646573206C696E6974C1
:101F680065732068206D20730D0A00456E746572D4
:101F7800206461746520616E642074696D65202831
:101F880044442F4D4D2F595959592048483A4D4DE1
:101F98003A5353293A200056616C6964206461748D
:101FA8006520666F726D61742E0A00496E76616CE9
:101FB8006964206461746520666F726D6174210ABA
:021FC800000017
:00000001FF
